:10030E00C180C181C182C183C184C185C186017290
:10031E000002730000026400FF026600FF02680024
:10032E00FF026A00FF026C00FF026E00FF02700007
:01033E00FFBF
:10062C00438E4053890F758B66758D7EC28FD28E2B
:03063C00D2AB221C
:10063F00438E805389F0758A26758CFDC28DD28CBE
:01064F002288
:10002600D207D208D209D20AD20BD20CD20D7592BF
:1000360001E4F591F5B2F5B1F5CAF5C91205C2129A
:10004600062C12063FD2ACD2AFC2CCE4F5D875D995
:1000560004F5E9F5F975DB4275F38075FB2075EB60
:1000660020C2DEC3E5749428E57394004038E57237
:100076006402703220020A120500E4F573F57480FA
:100086002520010A120490E4F573F5748018200304
:100096000A120538E4F573F574800B20040812047F
:1000A600C8E4F573F574A200300701B350152007B4
:1000B60009120458C2DEC2908005120420D2DEA2C4
:1000C600009207A205300C01B35013200C0712044E
:1000D60058C2DE8005120420D2DEA205920CA202CE
:1000E600300901B3501620090C120500E4F572F52B
:1000F60073F5748003757201A2029209A203300A95
:1001060001B35012200A08120538E4F5728003750F
:100116007201A203920AA204300B01B35012200B03
:10012600081204C8E4F5728003757201A204920BEA
:10013600A201300801B340020169200808120490A8
:0E014600E4F5728003757201A201920801694E
:010154002288
:03000B0002000EE2
:03000E00B290327B
:03001B000201558A
:0D015500C0E0C0D075D000C005C006C007D6
:10016200E57260080574E57470020573D3E5749452
:1001720058E57394024008E572B40103757202E512
:100182006525E0FFE56433FEA2B0E433FDEEF564DD
:10019200EF4DF56545647004C200800CE565B4FF5F
:1001A20007E564B4FF02D200E56725E0FFE56633A8
:1001B200FEA2B1E433FDEEF566EF4DF567456670DC
:1001C20004C201800CE567B4FF07E566B4FF02D202
:1001D20001E56925E0FFE56833FEA2B3E433FDEEF5
:1001E200F568EF4DF56945687004C202800CE56957
:1001F200B4FF07E568B4FF02D202E56B25E0FFE534
:100202006A33FEA2B4E433FDEEF56AEF4DF56B45B9
:100212006A7004C203800CE56BB4FF07E56AB4FFA1
:1002220002D203E56D25E0FFE56C33FEA2B5E433AF
:10023200FDEEF56CEF4DF56D456C7004C204800C5B
:10024200E56DB4FF07E56CB4FF02D204E56F25E06B
:10025200FFE56E33FEA2B2E433FDEEF56EEF4DF52F
:100262006F456E7004C205800CE56FB4FF07E56E42
:05027200B4FF02D205FB
:0B027700D007D006D005D0D0D0E03278
:10033F000B2257AB00050501010000000E0B4E57B5
:10034F00AB00050501000000000D0B3857AB000591
:10035F00050100F60000030B2D57AB00050501004A
:10036F000A0000170B5957AB000505010000F600F6
:0E037F00030B4357AB0005050100000A0017F1
:10042000E4F575F576F577F578F57575760BF5776E
:10043000F578C3E5789576E5756480F8E5776480AE
:1004400098501474222578F8E6FF1200030578E529
:07045000787002057780DBE4
:010457002282
:10045800E4F575F576F577F578F57575760BF57736
:10046800F578C3E5789576E5756480F8E577648076
:10047800985014744E2578F8E6FF1200030578E5C5
:07048800787002057780DBAC
:01048F00224A
:10049000E4F575F576F577F578F57575760BF577FE
:1004A000F578C3E5789576E5756480F8E57764803E
:1004B00098501474382578F8E6FF1200030578E5A3
:0704C000787002057780DB74
:0104C7002212
:1004C800E4F575F576F577F578F57575760BF577C6
:1004D800F578C3E5789576E5756480F8E577648006
:1004E800985014742D2578F8E6FF1200030578E576
:0704F800787002057780DB3C
:0104FF0022DA
:10050000E4F575F576F577F578F57575760BF5778D
:10051000F578C3E5789576E5756480F8E5776480CD
:1005200098501474592578F8E6FF1200030578E511
:07053000787002057780DB03
:0105370022A1
:10053800E4F575F576F577F578F57575760BF57755
:10054800F578C3E5789576E5756480F8E577648095
:1005580098501474432578F8E6FF1200030578E5EF
:07056800787002057780DBCB
:01056F002269
:0A05DF00EF1FAC0670011E4C601007
:0E05E9000000757C2C757D13D57DFDD57CFA48
:0305F70080E62279
:0A05FA00EF1FAC0670011E4C600FED
:0D0604000000751F6C151FE51F60EB80F8EE
:0306110080E7225D
:0A061400EF1FAC0670011E4C600DD4
:0B061E00757E09157EE57E60ED80F81A
:0306290080E92243
:030011000D0A00D5
:0300230002057063
:10057000C0E0C0D075D000C000C007309904C29957
:10058000C20E30980FC298AF090509740A2FF8A659
:0D0590009953090FD007D000D0D0D0E03231
:1005C200759850438E01438E0475D7A075D6FC43AF
:0D05D2008E1075A240E4F509F508C20E2256
:08000300200EFDD20E8F9922A0
:10059D008B798A7A897BAB79AA7AA97B1203DA6087
:1005AD0013057BE57B7002057A14F91203DAFF124D
:0505BD00000380E222B2
:06038E008B1A8A1B891C7A
:10039400E4F51DF51EFDFCF51D751E03E51E243058
:1003A400FF1200037BFF7A00791112059DE4C3ED6F
:1003B400951EE51D6480F8EC6480985018AB1AAA69
:1003C4001BA91C8D828C831203F3FF1200030DBD45
:0503D40000010C80D9BE
:0103D9002201
:0300000002028277
:0C028200787FE4F6D8FD75817E0202C989
:1003DA00BB010689828A83E0225002E722BBFE0221
:0903EA00E32289828A83E4932254
:1003F300BB010CE58229F582E5833AF583E02250BF
:1004030006E92582F8E622BBFE06E92582F8E22208
:0D041300E58229F582E5833AF583E4932222
:10028E00020026E493A3F8E493A34003F68001F260
:10029E0008DFF48029E493A3F85407240CC8C33371
:1002AE00C4540F4420C8834004F456800146F6DF40
:1002BE00E4800B010204081020408090030EE47EBF
:1002CE00019360BCA3FF543F30E509541FFEE49335
:1002DE00A360010ECF54C025E060A840B8E493A3FC
:1002EE00FAE493A3F8E493A3C8C582C8CAC583CA27
:1002FE00F0A3C8C582C8CAC583CADFE9DEE780BEDF
:01038D00006F
:00000001FF
